:020000040800F2
:1000000000000120C5020008CB020008CF02000852
:1000100041030008450300088D03000800000000AC
:10002000000000000000000000000000D5030008F0
:10003000D903000800000000DD03000819160008BD
:10004000F1030008F1030008F1030008F1030008C0
:10005000F1030008F103000835100008F10300085F
:10006000F1030008F1030008F1030008F1030008A0
:10007000F1030008F1030008F1030008F103000890
:10008000F1030008F1030008F1030008000000007C
:10009000000000000000000000000000F103000864
:1000A000F1030008F1030008F1030008F103000860
:1000B000F1030008F1030008F1030008F103000850
:1000C000F1030008F1030008F1030008F103000840
:1000D000F1030008F1030008F1030008000000002C
:1000E000F1030008F1030008F1030008000000001C
:1000F000000000000000000000000000F103000804
:1001000000000000F1030008F1030008F1030008FB
:1001100000000000000000000000000000000000DF
:10012000F1030008F1030008F1030008F1030008DF
:10013000F1030008000000000000000000000000C3
:10014000000000000000000000000000F1030008B3
:10015000F1030008F1030008F1030008F1030008AF
:10016000F1030008F1030008000000000000000097
:10017000000000000000000000000000000000007F
:1001800000000000F1030008000000000000000073
:10019000F103000800B583B000F046FE384B394A41
:1001A0001360394A1360394900E02146384B9942BF
:1001B0000BD20A684B6801F10C0488689842F4D9A4
:1001C0001168196004330432F8E72E4B1A68314B7A
:1001D0009A4200D0FEE72C4B1A682F4B9A42F9D175
:1001E000274B2E4A13602E4A13602E4B05E0002049
:1001F000106004329342FAD80B462B4A934204D241
:10020000194651F8082B5B68F4E7244B1B6813B9B7
:10021000234B1B6803B1FEE701F02EFB694601A8E2
:1002200000F094FD214C224BE41AA4100025AC42AE
:1002300014DC204C204BE41AA4100025AC4213DC43
:100240000099019801F002FA05461C4C1C4BE41A77
:10025000A410002C0EDC284600F04AFD144B53F885
:10026000253098470135E2E7134B53F8253098477E
:100270000135E3E7013C124B53F824309847E8E797
:10028000BABADECA0000002074000020F40300089F
:100290000C04000878563412325476987800002006
:1002A0005C0100200C0400081C0400081C04000869
:1002B0001C0400081C0400081C0400081C0400089E
:1002C0001C04000808B5FFF765FF00BEFEE71EF03E
:1002D000040F0CBFEFF30880EFF309807146414A29
:1002E00010472DE9F04182B004468846124B5E6B00
:1002F0009F6B9D6A1B6B13F0020F03D00E4BDB6AE2
:10030000002B0CDB0D4800F033FDCDF800803B46A0
:1003100032462946204600F093FD00BEFEE74BF62C
:10032000AB6100F007FE0028ECD0034B4FF0004219
:10033000DA6202B0BDE8F08100ED00E05823000869
:1003400000BEFEE71EF0040F0CBFEFF30880EFF3D2
:1003500009807146244A10472DE9F04182B00446D5
:100360008846084B5E6B9F6B9D6A074800F000FD56
:10037000CDF800803B4632462946204600F060FD1D
:1003800000BEFEE700ED00E0682300081EF0040F49
:100390000CBFEFF30880EFF309807146134A104752
:1003A0002DE9F04182B004468846084B5E6B9F6B96
:1003B0009D6A074800F0DCFCCDF800803B463246E1
:1003C0002946204600F03CFD00BEFEE700ED00E0BF
:1003D0007423000800BEFEE700BEFEE700BEFEE795
:1003E00070470000E302000859030008A103000859
:0403F00000BEFEE766
:1003F400C8C300080000002078000020C8C300081B
:1004040000000010000000107800002060010020AF
:080414000000001000000010C0
:1004200010B50446074B1868074BA3FB0030800942
:1004300000F090F8002221464FF0FF3000F044F821
:10044000002010BD0C000020D34D621008B50B4BEE
:100450001A6842F400721A601A6842F480621A60E4
:100460001A6842F480721A60032000F00FF80F201F
:10047000FFF7D6FF01F008FA002008BD003C02405B
:10048000014B1868704700BF5401002010B50446A6
:10049000C31E042B0FD80A4AD36823F4E0631B045D
:1004A0001B0C240204F4E064234343F0BF6343F4D1
:1004B0000033D36010BDA421024800F04FFCEAE7EE
:1004C00000ED00E08821000870B505460C46164690
:1004D0000F2A25D80F2C28D81B4BDB68C3F3022327
:1004E000C3F10702042A28BF0422191D062921D9B5
:1004F000033B4FF0FF3101FA02F224EA02049C4070
:1005000001FA03F326EA03063443002D14DB240129
:10051000E4B205F1604505F5614585F8004370BD1D
:10052000BC210A4800F01AFCD4E7BD21074800F0BE
:1005300015FCD1E70023DCE705F00F052401E4B248
:10054000034B5C55EBE700BF00ED00E0882100089D
:1005500014ED00E00138B0F1807F0AD2064B5860FC
:10056000064AF02182F823100020986007221A60C2
:1005700070470120704700BF10E000E000ED00E090
:1005800010B50446042800D038B9042C0BD0094A11
:10059000136823F00403136010BD40F2B311064842
:1005A00000F0DCFBF1E7034A136843F00403136037
:1005B000F2E700BF10E000E08821000830B583B00A
:1005C000044603680F2B29D8236813F0010F3DD090
:1005D0006368012B01D9052B25D1A34B9B6803F040
:1005E0000C03042B29D0A04B9B6803F00C03082BB1
:1005F0001ED022799D4B1A706368002B50D0FFF7F4
:100600003FFF0546984B1B6813F4003F1ED1FFF7D0
:1006100037FF401B6428F5D90320E3E1F521944816
:1006200000F09CFBD0E7FA21914800F097FBD4E75B
:100630008D4B5B6813F4800FDBD08B4B1B6813F47E
:10064000003F03D06368002B00F0C981236813F0DA
:10065000020F5DD0E368012B31D823691F2B34D8FA
:10066000814B9B6813F00C0F3AD07F4B9B6803F0D3
:100670000C03082B2FD0E368002B74D07D4B012294
:100680001A60FFF7FDFE0546774B1B6813F0020F5B
:100690005AD1FFF7F5FE401B0228F5D90320A1E14E
:1006A000FFF7EEFE0546704B1B6813F4003FCDD0FC
:1006B000FFF7E6FE401B6428F5D9032092E14FF4D2
:1006C00096716B4800F04AFBC7E740F22D1168486D
:1006D00000F044FBC4E7644B5B6813F4800FCAD19D
:1006E000614B1B6813F0020F04D0E368012B01D0AB
:1006F000012077E15C48036823F0F8032169F822C0
:1007000092FAA2F2B2FA82F201FA02F21343036001
:10071000236813F0080F50D06369012B35D8636943
:10072000002B38D0544B01221A60FFF7A9FE054672
:100730004D4B5B6F13F0020F3FD1FFF7A1FE401B43
:100740000228F5D903204DE14748036823F0F80358
:100750002169F82292FAA2F2B2FA82F201FA02F2C6
:1007600013430360D4E7434B00221A60FFF788FE6F
:1007700005463D4B1B6813F0020FC9D0FFF780FE02
:10078000401B0228F5D903202CE140F26D113848B6
:1007900000F0E4FAC3E7384B00221A60FFF770FE5E
:1007A0000546314B5B6F13F0020F06D0FFF768FE72
:1007B000401B0228F5D9032014E1236813F0040F2D
:1007C00060D0A368012B01D9052B1FD10023019311
:1007D000254B1A6C42F080521A641B6C03F0805354
:1007E0000193019B254A136843F480731360FFF75C
:1007F00047FE0546214B1B6813F4807F0CD1FFF7A1
:100800003FFE401B0228F5D90320EBE040F2971190
:10081000174800F0A3FAD9E7227A194B1A70A36897
:1008200083B1FFF72DFE05460F4B1B6F13F0020F30
:1008300028D1FFF725FE401B41F288339842F3D9B7
:100840000320CFE0FFF71CFE0546074B1B6F13F09C
:10085000020F17D0FFF714FE401B41F28833984275
:10086000F3D90320BEE000BF003802400238024046
:10087000CC21000800004742800E47420070004033
:1008800070380240A369022B39D8A369002B00F00D
:10089000A880564A926802F00C02082A00F0A48050
:1008A000022B40F08880E36913B1B3F5800F2CD19F
:1008B000236A3F2B2FD8636A323BB3F5BF7F30D812
:1008C000A36A022B05D0042B03D0062B01D0082BE2
:1008D0002DD1E36A043B0B2B2FD8454B00221A6025
:1008E000FFF7CEFD0546414B1B6813F0007F2AD071
:1008F000FFF7C6FD401B0228F5D9032072E04FF434
:10090000E6713C4800F02AFABFE740F2D5113948B9
:1009100000F024FACCE74FF4EB71364800F01EFAF1
:10092000C9E740F2D711334800F018FAC8E74FF48E
:10093000EC71304800F012FACBE740F2D9112D48A3
:1009400000F00CFAC9E7E369226A1343616A47F6CB
:10095000C07292FAA2F2B2FA82F201FA02F21343E0
:10096000A26A5208013A4FF4403191FAA1F1B1FA6A
:1009700081F18A401343E16A4FF0706292FAA2F269
:10098000B2FA82F201FA02F21343184A5360184B8A
:1009900001221A60FFF774FD0446144B1B6813F024
:1009A000007F06D1FFF76CFD001B0228F5D903205C
:1009B00018E0002016E00E4B00221A60FFF760FDE1
:1009C00004460A4B1B6813F0007F06D0FFF758FD62
:1009D000001B0228F5D9032004E0002002E00120DA
:1009E00000E0002003B030BD0120FBE700380240EA
:1009F00060004742CC210008214B9B6803F00C03A8
:100A0000042B3AD0082B01D01E4870471C4B586865
:100A100000F03F005B6813F4800F1ED01A4AB2FB4F
:100A2000F0F2174B586847F6C073184093FAA3F3D7
:100A3000B3FA83F3D84000FB02F0114B5B6803F478
:100A400040334FF4403292FAA2F2B2FA82F2D3402B
:100A500001335B00B0FBF3F070470A4AB2FBF0F2DF
:100A6000074B586847F6C073184093FAA3F3B3FADC
:100A700083F3D84000FB02F0DFE70348704700BF74
:100A8000003802400024F40040787D0170B504462F
:100A90000D460368013B0E2B11D8072D15D88C4B42
:100AA0001B6803F00F03AB4215D2EBB2884A1370F8
:100AB000136803F00F03AB420DD0012070BD40F26C
:100AC0003721844800F04AF9E7E74FF40E71814876
:100AD00000F044F9E3E7236813F0020F18D0A3688D
:100AE0007BB1802B0DD0902B0BD0A02B09D0B02B3D
:100AF00007D0C02B05D0D02B03D0E02B01D0F02B9A
:100B000037D1754A936823F0F003A1680B439360D3
:100B1000236813F0010F73D06368032B2FD8636829
:100B2000012B32D09A1E012A36D96B4A126812F074
:100B3000020F00F0CA8068498A6822F0030213435A
:100B40008B60FFF79DFC06466368012B2BD0022BC0
:100B500038D0032B45D0604B9B6813F00C0F4FD05F
:100B6000FFF78EFC801B41F288339842F3D90320B3
:100B7000A4E740F24F21574800F0F0F8C1E740F2F7
:100B80005621544800F0EAF8C9E7534A126812F4B3
:100B9000003FD0D1012091E74F4A126812F0007F48
:100BA000C9D101208AE74C4B9B6803F00C03042B4E
:100BB00026D0FFF765FC801B41F288339842F2D9BA
:100BC00003207BE7444B9B6803F00C03082B17D0F2
:100BD000FFF756FC801B41F288339842F2D903207C
:100BE0006CE73D4B9B6803F00C030C2B08D0FFF720
:100BF00047FC801B41F288339842F2D903205DE71D
:100C0000334B1B6803F00F03AB4209D9EAB2304BF8
:100C10001A701B6803F00F03AB4201D001204DE7AF
:100C2000236813F0040F14D0E3685BB1B3F5805F61
:100C300008D0B3F5A05F05D0B3F5C05F02D0B3F51F
:100C4000E05F36D1244A936823F4E053E1680B4314
:100C50009360236813F0080F15D023695BB1B3F5D7
:100C6000805F08D0B3F5A05F05D0B3F5C05F02D0B8
:100C7000B3F5E05F23D1184A936823F460432169F8
:100C800043EAC1039360FFF7B7FE134B9B6803F081
:100C9000F003F02292FAA2F2B2FA82F2D3400F4AA3
:100CA000D35CD8400E4B18600F20FFF7B9FB002033
:100CB00004E74FF42D71074800F050F8C2E740F206
:100CC000BB21044800F04AF8D5E70120F6E600BF52
:100CD000003C0240CC21000800380240BC21000842
:100CE0000C000020014B1868704700BF0C0000206A
:100CF000FEE7000008B5034800F052F80120FFF7B6
:100D0000F7FF00BFFC21000808B503460C4A126833
:100D10005AB10B4A1068033323F003030344094A12
:100D2000934206D8064A136008BD054A0649116079
:100D3000EFE700F0ABFD0C2303604FF0FF30F3E76B
:100D40007C00002000FC00206001002001230360E3
:100D5000014B0B60704700BF0400002008B50A4635
:100D60000146024800F004F8FFF7C4FF1022000813
:100D70000FB400B583B004AB53F8042B019380216A
:100D8000064800F0BDFD002803DD0146034800F0E1
:100D900047F803B05DF804EB04B07047840000200E
:100DA00010B5044600F078FD0146204600F038F802
:100DB0000121024800F034F810BD00BFD422000821
:100DC0002DE9F04385B004460F4643560BB10E465D
:100DD0001EE0042528462146ABBE0446384605B031
:100DE000BDE8F08314F9011B04AA1A4402F8101C90
:100DF0000133AB42F6D304AA1344002203F8102CAB
:100E00004FF00408E94640464946ABBE8046761B93
:100E1000002EE3D03546102E28BF10250023E8E72A
:100E200008B5FFF7CDFF08BD08B500F093F8024AFA
:100E3000024B9A6008BD00BF0000000800ED00E012
:100E4000F8B504460D4617461E462748FFF790FFA3
:100E500021682648FFF78CFF61682548FFF788FF67
:100E6000A1682448FFF784FFE1682348FFF780FF6B
:100E700021692248FFF77CFF61692148FFF778FF6D
:100E8000A1692048FFF774FFE1691F48FFF770FF71
:100E90001E48FFF76DFF29461D48FFF769FF1D4CEF
:100EA000E16A1D48FFF764FF216B1C48FFF760FFF4
:100EB000E16B1B48FFF75CFF15F0800F0AD115F4BA
:100EC000004F0CD11748FFF753FF06991648FFF75C
:100ED0004FFFF8BD39461548FFF74AFFEFE73146A7
:100EE0001348FFF745FFEDE73C2200084C220008BD
:100EF0005C2200086C2200087C2200088C2200087A
:100F00009C220008AC220008BC220008CC22000869
:100F1000D822000800ED00E0E8220008F8220008CE
:100F2000082300083823000840230008182300087D
:100F30002823000883691A888A4201D0002070475C
:100F40000268033A012A03D8023383610120704703
:100F5000002070470C4B1A6842F001021A60002111
:100F600099601A6822F0847222F480321A60074A6B
:100F70005A601A6822F480221A60D960044B4FF03C
:100F800000629A60704700BF0038024010300024B1
:100F900000ED00E0224B9B6803F00C03042B14D0FF
:100FA000082B16D01BB11F4B1F4A1A6002E01D4BC5
:100FB0001D4A1A601A4B9B68C3F303131B4AD15C8A
:100FC000184A1368CB4013607047164B184A1A60D2
:100FD000F0E7134B5A685B6803F03F0312F4800F8D
:100FE00013D0134AB2FBF3F20D4B5B68C3F38813C3
:100FF00003FB02F30A4A5268C2F301420132520073
:10100000B3FBF2F3074A1360D4E7074AB2FBF3F2EB
:10101000034B5B68C3F3881303FB02F3EAE700BFEB
:10102000003802400C0000200024F4008423000853
:1010300040787D0108B5054B1B6803B19847044A09
:10104000536943F00103536108BD00BF0401002050
:10105000003C0140012828D010B102284AD0704736
:10106000032A6BD8DFE802F002060F18344B9A68A7
:101070009A607047324883684900012202FA01F100
:101080000B43836070472E4883684900022202FAAE
:1010900001F10B43836070472948836849000322AC
:1010A00002FA01F10B4383607047032A46D8DFE858
:1010B00002F002060F18234B9A689A607047214885
:1010C00083684900012202FA01F10B4383607047F3
:1010D0001C4883684900022202FA01F10B43836035
:1010E0007047184883684900032202FA01F10B4354
:1010F00083607047032A21D8DFE802F002060F1848
:10110000114B9A689A6070470F4883684900012222
:1011100002FA01F10B43836070470B488368490072
:10112000022202FA01F10B4383607047064883688C
:101130004900032202FA01F119438160704700BFA0
:10114000000002400004024000080240F0B4012800
:1011500056D020B1022800F0A580F0BC7047012ACB
:101160002CD052B1022AF8D17848036849000222F3
:1011700002FA01F10B430360EFE774480468490089
:10118000012202FA01F7FE4334400460046811446E
:101190008A40D5432C40046043B1012BDDD1C168A6
:1011A0000E40C660C1680A43C260D6E7674BDA6882
:1011B0001540DD60DA681743DF60CEE7634A1568E3
:1011C0004C00012000FA04F635431560156804440C
:1011D000A04025EA000010604BB1012BBDD15B4857
:1011E0004368012202FA01F119434160B5E757480B
:1011F0004368012202FA01F123EA01014160ACE7F0
:10120000012A2CD052B1022AA7D1514803684900C3
:10121000022202FA01F10B4303609EE74C48046886
:101220004900012202FA01F7FE43344004600468D9
:1012300011448A40D5432C40046043B1012B8CD12A
:10124000C1680E40C660C1680A43C26085E7404B72
:10125000DA681540DD60DA681743DF607DE73C4AF5
:1012600015684C00012000FA04F635431560156836
:101270000444A04025EA0000106053B1012B7FF424
:101280006CAF33484368012202FA01F1194341600F
:1012900063E72F484368012202FA01F123EA0101C2
:1012A00041605AE7012A2ED05AB1022A7FF455AF85
:1012B000284803684900022202FA01F1194301603B
:1012C0004BE7244804684900012202FA01F7FE4373
:1012D00034400460046811448A40D5432C400460C3
:1012E0004BB1012B7FF439AFC1680E40C660C168B5
:1012F0000A43C26031E7174BDA681540DD60DA68EF
:101300001743DF6029E7134A15684C00012000FAF3
:1013100004F63543156015680444A04025EA000032
:10132000106053B1012B7FF418AF0A4843680122C3
:1013300002FA01F1194341600FE7064843680122B0
:1013400002FA01F123EA0101416006E700000240D0
:101350000004024000080240012818D010B1022801
:101360002AD0704712B1012A09D070471D4A9369EB
:1013700001F1100001218140194391617047194822
:101380008369012202FA01F119438161704712B1A8
:10139000012A09D07047144A936901F11000012114
:1013A00081401943916170470F488369012202FA15
:1013B00001F119438161704712B1012A09D07047C8
:1013C0000A4A936901F1100001218140194391619A
:1013D000704706488369012202FA01F119438161CD
:1013E000704700BF000002400004024000080240B5
:1013F00030B4012824D018B1022841D030BC704745
:1014000007290DD82E4C236A89000F20884023EA33
:1014100000032362236A02FA01F119432162EDE716
:10142000274C636AA1F1080080000F21814023EA64
:1014300001036362636A02FA00F018436062DDE749
:1014400007290DD81F4C236A8D000F21A94023EADC
:1014500001032362236A02FA05F119432162CDE7F1
:10146000184C606AA1F108039B000F21994020EA03
:1014700001016162616A02FA03F30B436362BDE733
:1014800007290ED9104C636A083989000F2088405B
:1014900023EA00036362636A02FA01F1194361629D
:1014A000ACE7094C236A89000F20884023EA000337
:1014B0002362236A02FA01F1194321629EE700BF09
:1014C0000000024000040240000802400A4B1A6873
:1014D00042F001021A609A6822F001029A609A684A
:1014E00022F002029A609A6822F0F0029A609A68EA
:1014F00042F080029A60704700380240032822D8E8
:10150000DFE800F0020A121A0F48036B012202FA08
:1015100001F11943016370470B48436B012202FA42
:1015200001F11943416370470748036C012202FA35
:1015300001F11943016470470348436C012202FA28
:1015400001F11943416470470038024008B5002397
:10155000022207211846FFF7F9FD00230222052188
:101560001846FFF7F3FD002207211046FFF772FD32
:10157000002205211046FFF76DFD052207210020FE
:10158000FFF736FF052211460020FFF731FF002349
:10159000022204211846FFF7D9FD00231A46042130
:1015A0001846FFF7D3FD052204210020FFF720FF96
:1015B000024B40F247321A6008BD00BF00300140C4
:1015C000054BD860044B9B6813F0800FFAD1024B97
:1015D000D868C0B2704700BF00300140064B1A689F
:1015E00022F004021A601A6822F002021A601A68D5
:1015F00042F001021A60704710E000E0054B5860AD
:10160000044B1B6813F4803FFAD0024B00229A600F
:10161000704700BF10E000E008B5094B1B783BB9EC
:10162000084B00225A609A601A6822F001021A6080
:10163000054B1B6803B19847024B1B6808BD00BFF0
:101640004801002010E000E04401002008B5FFF749
:101650003DFF00210846FFF751FF0C210320FFF753
:101660004DFFFFF7BBFFFFF771FF00F025F80248C1
:1016700000F09AF8FEE700BF9423000810B582B08E
:101680000446012200210846FFF766FE0DF107011E
:101690002046FFF795FF02B010BD10B582B004469A
:1016A000002211461046FFF757FE0DF107012046B4
:1016B000FFF786FF02B010BD08B5002301221946CE
:1016C0001846FFF743FD0023012211461846FFF795
:1016D0003DFD002211461046FFF7BCFC002201210F
:1016E0001046FFF7B7FC012211460020FFF734FE39
:1016F0006420FFF783FF002201211046FFF72CFE34
:101700000120FFF77BFF012211460020FFF724FE96
:101710006420FFF773FF002201211046FFF71CFE33
:101720006420FFF76BFF012211460020FFF714FE33
:101730000948FFF763FF1120FFF7AFFF0748FFF7E6
:101740005DFF0520FFF7A9FF0520FFF797FF292080
:10175000FFF7A3FF08BD00BFC0D40100F04902009D
:10176000F8B507460E4615461C462A20FFF795FF9A
:101770000020FFF783FF3846FFF780FF0020FFF7C8
:101780007DFF3046FFF77AFF2B20FFF786FF002012
:10179000FFF774FF2846FFF771FF0020FFF76EFF89
:1017A0002046FFF76BFFF8BD38B505469F230022A2
:1017B0007F211046FFF7D4FF2C20FFF76EFF002497
:1017C0000AE035F81400000AFFF758FF15F8140076
:1017D000FFF754FF0134A4B2B4F5A04FF1D938BDDE
:1017E00070B594B000240194204B1A6C42F08052E2
:1017F0001A641B6C03F080530193019B02941C4BF1
:101800001A6842F440421A601B6803F44043029392
:10181000029B0123089309934FF480030F9319232C
:1018200010934FF4A8731193042612960723139371
:1018300002250E9508A8FEF7C1FE0F230393049519
:1018400005944FF4805306930794294603A8FFF7A5
:101850001DF9FFF747FA074BA3FB00308009FEF79D
:1018600079FE3046FEF78CFE14B070BD00380240A1
:1018700000700040D34D621008B5FEF7E7FDFFF79A
:10188000AFFFFFF787FB08BD70470000014B1868EA
:10189000704700BF10000020034613F8012B002AF8
:1018A000FBD1181A0138704730B5141E05469BB09D
:1018B000184605DA8B232B604FF0FF301BB030BD8C
:1018C0004FF40273ADF80C3014BF04F1FF3323461C
:1018D000029305934FF6FF7300910491ADF80E301B
:1018E00002461E9B6946284600F072F8431CBCBFA6
:1018F0008B232B60002CE1D0009B00221A70DDE7C7
:1019000007B5009313460A46014603480068FFF7EF
:10191000CBFF03B05DF804FB100000202DE9F04779
:101920008E689E4282460C469046994637D88A89F0
:1019300012F4906F31D0256809696F1A6569022326
:1019400005EB450595FBF3F509F101033B449D4289
:1019500038BF1D46530530D5294600F07BFB0646AF
:1019600050B90C23CAF80030A38943F04003A38187
:101970004FF0FF30BDE8F0873A46216900F0F8FAF1
:10198000A38923F4906343F08003A38126616561FA
:101990003E44ED1B2660A5604E464E4500D94E469E
:1019A00032464146206800F0EEFAA3689B1BA36014
:1019B00023681E4426600020DCE72A4600F0A4FBD2
:1019C00006460028E2D12169504600F0F5FAC8E742
:1019D0002DE9F04F9DB0804603938B891D060C4680
:1019E00016460FD50B696BB9402100F033FB206020
:1019F000206128B90C23C8F800304FF0FF30C7E051
:101A0000402363610023099320238DF8293030237C
:101A10008DF82A304FF0010B37463D4615F8013B53
:101A20000BB1252B3ED1B7EB060A0BD053463246FD
:101A300021464046FFF772FF013000F0A480099B69
:101A4000534409933B78002B00F09D8000234FF016
:101A5000FF32CDE90523049307938DF853301A9391
:101A60002F46052217F8011B4F4800F031FA049B5E
:101A7000D0B9D90644BF20228DF853201A0744BF9D
:101A80002B228DF853202A782A2A15D0079A2F4620
:101A900000200A25394611F8013B303B092B4DD96E
:101AA000B8B10FE02F46B8E73F4A801A0BFA00F0B2
:101AB000184304903D46D3E7039A111D1268039121
:101AC000002A01DB079204E0524243F0020307922E
:101AD00004933B782E2B0CD17B782A2B33D1039B9C
:101AE0001A1D1B680392002BB8BF4FF0FF3302375B
:101AF00005932E4D39780322284600F0E9F938B1D4
:101B00004023401B03FA00F0049B03430137049376
:101B1000397827488DF8281006227E1C00F0D8F965
:101B2000002838D0234B13BB039B073323F0070354
:101B300008330393099B4B4409936DE705FB02327D
:101B400001200F46A6E700230137059319460A2511
:101B5000384610F8012B303A092A03D9002BC8D097
:101B60000591C6E705FB012101230746F0E703AB1A
:101B700000932246104B04A94046AFF30080B0F119
:101B8000FF3F8146D6D1A3895B063FF536AF099862
:101B90001DB0BDE8F08F03AB00932246064B04A9AD
:101BA000404600F081F8EAE794C300089AC30008B1
:101BB0009EC30008000000001D1900082DE9F04731
:101BC00091461F468A680B69DDF820809342B8BFB2
:101BD0001346C9F8003091F8432006460C4612B16E
:101BE0000133C9F800302368990642BFD9F80030A4
:101BF0000233C9F80030256815F0060507D104F155
:101C0000190AE368D9F800209B1AAB4228DC94F843
:101C100043302268003318BF012392062DD404F10B
:101C2000430239463046C047013020D02368E5687A
:101C3000D9F8002003F00603042B08BFAD1AA368EF
:101C400022690CBF25EAE57500259342C4BF9B1AA3
:101C5000ED184FF000091A344D451AD1002008E064
:101C60000123524639463046C047013003D14FF078
:101C7000FF30BDE8F0870135C3E7E1185A1C30207A
:101C800081F84300224494F8451082F8431002334F
:101C9000C5E70123224639463046C0470130E6D029
:101CA00009F10109D8E700002DE9F04301F1430CE7
:101CB0000C46097E85B06E291746064698460C9A52
:101CC00000F0B38022D8632936D00AD8002900F06A
:101CD000B980582900F0838004F1420584F842104D
:101CE00032E0642901D06929F6D12068136805061D
:101CF00003F104012AD51B681160002B03DA2D22A1
:101D00005B4284F843206F480A2239E0732900F0CF
:101D10009D8008D86F2920D07029DDD1236843F039
:101D20002003236003E0752917D07829D4D17823C4
:101D300084F84530644855E01368191D1B6811602C
:101D400004F1420584F8423001238CE01B681160E5
:101D500010F0400F18BF1BB2CFE713682568181D9D
:101D60001060280601D51B6802E06806FBD51B88B9
:101D700054486F2914BF0A220822002184F8431016
:101D80006568A560002DC0F29580216821F00401EE
:101D90002160002B3DD1002D40F08E806546082A41
:101DA0000BD12368DB0708D5236962689A42DEBF3E
:101DB000302305F8013C05F1FF35ACEB0503236149
:101DC000CDF800803B4603AA21463046FFF7F6FED9
:101DD00001304DD14FF0FF3005B0BDE8F0833948F8
:101DE00084F84510136821681D1D1B6815600A06DC
:101DF0000BD5CA0744BF41F0200121601BB92268FE
:101E000022F0200222601022B7E74D0648BF9BB2A5
:101E1000EFE76546B3FBF2F102FB1133C35C05F853
:101E2000013D0B460029F5D1B9E7136825686169C2
:101E3000181D106028061B6801D5196002E06A06AB
:101E4000FBD51980002323616546B9E71368191D86
:101E500011601D6862680021284600F039F808B159
:101E6000401B606063682361002384F84330A7E768
:101E700023692A4639463046C0470130AAD0236834
:101E80009B0713D4E068039B9842B8BF1846A3E7AA
:101E900001234A4639463046C04701309AD00135C1
:101EA000E368039A9B1AAB42F2DCEBE7002504F1EE
:101EB0001909F5E7002BACD1037884F8423004F11E
:101EC00042056CE7A5C30008B6C300080000000087
:101ED00001F0FF01102A2BDB10F0070F08D010F8DB
:101EE000013B013A8B422DD010F0070F42B3F6D1DF
:101EF000F0B441EA012141EA014122F007047FF0F8
:101F000000070023F0E80256083C85EA010586EA4E
:101F1000010685FA47F5A3FA87F586FA47F6A5FA8A
:101F200087F68EB9EED1F0BC01F0FF0102F0070296
:101F300032B110F8013B013A83EA010313B1F8D141
:101F40000020704701387047002D06BF3546033822
:101F5000073815F0010F07D1013015F4807F02BF5B
:101F6000013015F4C03F0130F0BC0138704700BFAC
:101F700010B5431E0A44914200D110BD11F8014B27
:101F800003F8014FF7E7884210B501EB020307D8C9
:101F9000421E99420AD011F8014B02F8014FF8E7AE
:101FA0008342F5D98118D21AD34200D110BD13F85B
:101FB000014D01F8014DF7E738B50546002945D038
:101FC00051F8043C0C1F002BB8BFE41800F0D2F805
:101FD0001F4A1368104633B9636014602846BDE891
:101FE000384000F0C8B8A3420CD921686218934267
:101FF00004BF1A685B68636004BF52182260046003
:10200000ECE713465A680AB1A242FAD9196858187F
:10201000A0420BD120680144581882421960DDD1DA
:10202000106852685A6001441960D7E702D90C233E
:102030002B60D3E7206821188A4204BF11685268D8
:10204000626004BF091821605C60C7E738BD00BF4B
:102050004C01002070B5CD1C25F0030508350C2D72
:1020600038BF0C25002D064601DBA94203D90C23FD
:102070003360002070BD00F07DF8214A14682146CD
:1020800091B9204C23681BB9304600F063F82060FA
:102090002946304600F05EF8431C24D10C233360FF
:1020A000304600F068F8E4E70B685B1B18D40B2B94
:1020B0000FD90B60CD50CC18304600F05CF804F11D
:1020C0000B00231D20F00700C31AD3D05A42E25060
:1020D000D0E78C424B6816BF636013600C46EBE799
:1020E0000C464968CCE7C41C24F00304A04205D088
:1020F000211A304600F02EF80130CFD02560DBE702
:102100004C01002050010020F8B5074614460E4649
:1021100021B91146BDE8F840FFF79CBF22B9FFF78F
:102120004BFF25462846F8BD00F026F8A0420FD206
:1021300021463846FFF78EFF05460028F2D031468B
:102140002246FFF715FF31463846FFF735FFE9E72E
:102150003546E7E738B5064C0023054608462360B8
:10216000FEF7D2FD431C02D1236803B12B6038BDBA
:10217000580100207047704751F8043C181F002B8D
:10218000BCBF0B58C01870472E2E2F73797374651F
:102190006D2F7372632F73746D333266342D6861E3
:1021A0006C2F73746D3332663478785F68616C5F5E
:1021B000636F727465782E630000000000000000F9
:1021C0000102030401020304060708092E2E2F73DF
:1021D000797374656D2F7372632F73746D33326608
:1021E000342D68616C2F73746D3332663478785F88
:1021F00068616C5F7263632E6300000061626F72DE
:102200007428292C2065786974696E672E2E2E003B
:102210006173736572745F706172616D28292066E5
:1022200061696C65643A2066696C652022257322B9
:102230002C206C696E652025640A0000537461636C
:102240006B206672616D653A0A00000020523020F2
:102250003D2020253038580A00000000205231204F
:102260003D2020253038580A00000000205232203E
:102270003D2020253038580A00000000205233202D
:102280003D2020253038580A00000000205231320D
:10229000203D20253038580A00000000204C5220F4
:1022A0003D2020253038580A0000000020504320EF
:1022B0003D2020253038580A00000000205053529D
:1022C000203D20253038580A000000004653522F88
:1022D0004641523A0A0000002043465352203D2016
:1022E00020253038580A00002048465352203D200F
:1022F00020253038580A00002044465352203D2003
:1023000020253038580A00002041465352203D20F5
:1023100020253038580A0000204D4D464152203DBE
:1023200020253038580A00002042464152203D20E6
:1023300020253038580A00004D6973630A000000F8
:10234000204C522F4558435F52455455524E3D2024
:10235000253038580A0000005B4861726446617598
:102360006C745D0A000000005B4275734661756C19
:10237000745D0A005B55736167654661756C745DD9
:102380000A00000000000000000000000102030439
:1023900006070809EB51EB51EB51EB51EB51EB51B7
:1023A000EB51EB51EB49EB49EB49EB49EB49EB497D
:1023B000EB49EB49EA51C9490A522A52E951D093F3
:1023C000F8DD13CDD2CCD1D40EBC8CAB8DAB6D9BD4
:1023D0008A7A49720B4A89416839A939CA39AA31BE
:1023E000AA31EC39EC310D322E3A4F3A4F3A2E3AAF
:1023F0000E322F3A2F3A4F3A4F3A2E3A2D320C32B4
:10240000CC31CB310C420C4AEC49CB49AB41AA3917
:102410008A39AA39AA39AA39AA39CA41EB490B4AD9
:102420000B4AEC496E5AB05A1163536B746395634F
:10243000F763F75BD573167C367C8F52CB31CB3983
:10244000EB41CB39CB41CB41CB39CB39AA39CA3956
:10245000CA39CA39AA39AA39AA39AA39AA39AA3924
:10246000AA39AA398A318A31AA318A318A31893125
:10247000893189318931893189318931893189318C
:1024800089318931893189318931693169316931DC
:10249000693189310B520B520B520B520B52EB51DB
:1024A0000B520B520B520B520B520B52EA51EA5188
:1024B000EA510A4A0A520A52EA510A520952AC6ACD
:1024C000D3BC75DDF2D490CCCDB38CAB8DAB2C935B
:1024D0004972E861EA49894168398939CA39AA39B2
:1024E000AA31CB31CC31EC31ED310E320E320E321D
:1024F0002F3A4F3A2F3A2F3A2E3A2E320D32EC31F4
:10250000CC31AB31EC412D4A2D52EC49CB49AA419B
:102510008A39893969398A39CA41CA41CA41CA41A5
:10252000EB490C522D528F5AF1625363956BD6636F
:10253000F663D663D57357845263ED39CC39EC39E1
:10254000CB39CB39CB41CB41CB39CB39AA39CA397D
:10255000CA39CA39CA39CA39AA39AA39AA39AA39E3
:10256000AA39AA39AA39AA39AA39AA31AA318A318B
:102570008A3189318A318A318A3189318931893187
:1025800089318931893189318931893169316931BB
:10259000693169312B5A2B5A2B5A2B5A2B5A0B5A09
:1025A0000B520B520B520B520B520B520B520A5244
:1025B0000A520A52EA510A52EA510A520A5AE9598F
:1025C0000C8313CDF2D42FC4ADB36CAB6C9BAA8239
:1025D000096AC859C941894168398939CA39CB3929
:1025E000AB318A29CC31ED31ED31ED310D322E3A5E
:1025F0004F3A4F424F422F3A4E3A2E3A2D320C323A
:10260000CC31CB31AB390C4A0C520C52EB51CA498C
:102610008941A94189398939AA39CA41CA41EB4955
:10262000EB49EC490C4A2E52905AF25A7463B56B3E
:10263000B563D663F57BF57B4E42AB31CB39EB39D5
:10264000AA39CB39CB41CB41CB39CB39AA39CA399D
:10265000CA39CA39CA39AA39AA39AA39AA39AA3902
:10266000AA39AA39AA39AA39AA39AA39AA39AA3952
:10267000AA39AA39AA39AA39AA39AA31AA318A317A
:102680008A318A3189318931893189318931693198
:10269000693169312B5A2B5A2B5A2B5A2B5A2B5AE8
:1026A0002B5A2B5A0B5A0B5A0B5A0A5A0A5A0A5AC5
:1026B0000A520A52EA51EA510A522A5A0A5A29621D
:1026C000286A70BC91CCEEBBADB36CA30B9349727E
:1026D0000962C859A94189398939A939CA39CA3120
:1026E000AA318B29EC312D3A2E3A0E3A2E3A2E3A57
:1026F0004E422E422E424E424E3A4E3A4E3A2D3ADB
:102700000D3AEC39AB39CB41EB490C520B52EA5143
:10271000A949A9498A398A39AA41CA41EB49EB49F1
:10272000EB49EB490C522D526F529052125B74637D
:10273000745BB563F57BB052AB31EC39CB39CA3938
:10274000EB41CB41CA39CB39CB39CB39AA39CA395C
:10275000CA39CA39AA39AA39AA39AA39AA39AA3921
:10276000AA39AA39AA39AA39AA39AA39AA39AA3951
:10277000AA39AA39AA39AA39AA39AA39AA39AA3149
:102780008A318A318A318A31893189318931893175
:10279000893189314B624B624B624B622B622B5AFF
:1027A0002B5A2B5A2B5A2B5A2B5A2B5A0A5A0A5A43
:1027B0000A5A0A5A2B520B520B520A5A2A62496A77
:1027C000EB8A91C42FBC8CAB6CAB2B9BCB824A6A3F
:1027D0000A5AC949894168398939CA39CA398A3195
:1027E0008A29CB31ED312D3A2E3A2E3A2E3A4E42ED
:1027F0004E422E424F424F424F426F426F424E3A3C
:102800002D3A0C3ACB39AB39CB492C5A8D624B62FD
:10281000C951A9498A39AA41CB41EB49CA41CA41A8
:10282000EB490C520D522E526F5A8F52D15A3363CC
:10283000746394633263AC31CB390C42CB39AA391F
:10284000EB41CB41CA39CA41CB39AB39AA39CA3974
:10285000CA39CA39AA39AA39AA39AA39AA39AA3920
:10286000AA39AA39AA39AA39AA39CA39CA39AA3910
:10287000AA39AA39AA39AA39AA39AA39AA39AA3148
:10288000AA318A31AA31AA318A318A318931893112
:102890008A318A316C626B626B624B624B624B6253
:1028A0004B624B622B5A2B5A2B5A2B5A2B5A2A5AB1
:1028B0002A5A2A5A2B522C5A0B5A2A5A2A62086A26
:1028C00010B4B1CCCDB34BA30A9BCA8A8A7A4A62B0
:1028D000EA518841883988398939CA39AA316A293F
:1028E0008A29EC310D320D322E3A2E3A2E424E42CA
:1028F0006E4A4E4A4F424F426F426F426F424E3ACB
:102900002E3A0D3AEC39AB39AA414C5AEE72CE72DE
:102910002B62C959CB41AA41AA41AA41CA41CA4125
:10292000EB492C52EC492D526E5AB05AF15A53636E
:10293000B57374632D428B31EC41CB39CB41CA4125
:10294000CA39CA41CA41CA41CB39AB39AA39CA3995
:10295000CA39CA39CB39CB39CB39CB39CB39CB3959
:10296000CB39CB39AA39AA39AA39AA39AA39AA390D
:10297000AA39AA39AA31AA31AA31AA31AA31AA316F
:10298000AA31AA31AA31AA31AA31AA31AA31AA316F
:10299000AA31AA316C626C624C624B624B622B6250
:1029A0002B624B5A2B5A2B5A2B5A2B5A2B5A2B5AD7
:1029B0000A5A0A5AEB490B520B5A0A622A6AAB822C
:1029C000B2C470C4ADB32BA3A98A897A496A095AE3
:1029D000A94969396839893989398A3969296A2956
:1029E000AB290D320E3A2E322E3A4E426F426F4ACA
:1029F0006F4A6F4A6F424F426F426F426F3A4F3A8F
:102A00004E3A0E3AEC39AB398A392C520F7B4F8350
:102A1000AD720A62EB49AA418A39AA41CB41EB491E
:102A2000EB490C52CB492D522E5A8F62B05A126389
:102A30009473D152AB39CB39CB41AA39CA41EA415F
:102A4000CA41CA41CA41CA41AA41AB39AA39CA39A5
:102A5000CA39CA39CB39CB39CB39CB39CB39CB3958
:102A6000AA39AA39AA39AA39AA39AA39AA39AA394E
:102A7000AA39AA39AA31AA31AA31AA31AA31AA316E
:102A8000AA31AA31AA31AA31AA31AA31AA31AA316E
:102A9000AA31AA314B624B5A2B5A2B5A0A5A0A5A5C
:102AA0000A5A0A5A0A520A520A52EA51EA51EA5199
:102AB000EA51EA51EB49CA49CA51E959C86110B40F
:102AC000B2D42FC4CDBB4BA3898A697AE859A949EE
:102AD0008939AA3968318939A939692949216A2985
:102AE000CC312D3A2E322E322E3A6F426F426F4247
:102AF0004F426E4A6F424F424F3A4F3A6F3A6F3AE7
:102B00004F3A4F3A0D3ACC398A31EB41EE6A708335
:102B1000ED7A2A62CB41CB41CB41CB41CB41CB417A
:102B2000EB490C52EC492D5A0D526E5A4E528F5AA7
:102B30003263ED39AB39EB41AA39EB41AA39CA41CD
:102B4000EB41CA41AA41AA41AA41AA39AA39CA39C4
:102B5000CA39CA39AB39AB39AA39AA39AA39AA391B
:102B6000AA39AA39CB39AA39AA39AA31AA31AA3144
:102B7000AA39AA39AA31AA31AA31AA31AA31AA316D
:102B8000AA31AA31AA31AA31AA31AA3189318931AF
:102B900089318931EA51EA51EA51EA51EA51EA515F
:102BA000EA51EA51C951C949C949C949C949C9493B
:102BB000C949C949CA49AA49A951E959096A92C4E6
:102BC000B2D42FC4EEBB8CABCA924972095AA94940
:102BD0008939AA3989318931893169296929AB3122
:102BE0000D3A2E3A2E3A2E3A4E3A6F426F426F42CB
:102BF0004E422E424F426F4270429042B142B14229
:102C0000904290422E3A0D3ACC39CB410B4A4C5A65
:102C10004B620A5AEB41AA41AA39CB41EB41CB4165
:102C2000CB490C4A0C522D520D524E5A6F5A8F5AA4
:102C30006F52CC39CB39CB41CB41AA41AA39CA41D9
:102C4000CA41CA41AA41AA41AA39AB39AA39AA390B
:102C5000CA39CA39AB39AB39AA39AA39AA39AA391A
:102C6000AA39AA39AA39AA39AA39AA39AA39AA394C
:102C7000AA39AA39AA31AA31AA31AA31AA31AA316C
:102C8000AA31AA31AA31AA318931893189318931F0
:102C900089318931CA49CA49CA49CA49CA49CA494E
:102CA000C949C949C949CA49CA49CA49CA49CA498F
:102CB000C949C949CA49AA49C951E961497292CC6D
:102CC00090CC2FC42FC4ADB3EB924972E95989411E
:102CD0008939AA39CA39AA39893149296929CB31AF
:102CE0000D3A2D3A2E3A2E3A4E424F424F424F4223
:102CF0004F424F427042904290429142B1429142C3
:102D0000703A4F3A4F3A0E3ACC31AB31CA41EB49A7
:102D1000EA51CA51CB41AA398A39CA41CB41CB4188
:102D2000EB490C520C522D5A2D5A4E5A6E5A8F5A4C
:102D30008F5A2D4ACA41CB41CA41AA41A939CA4139
:102D4000CA41CA41CA41CA41AA39AB39AA39CA39AA
:102D5000CA39CA39AA39AA39AA39AA39AA39AA391B
:102D6000AA39CA39AA39AA39AA39AA39AA39AA392B
:102D7000AA39AA39AA39AA31AA318A31AA31AA3183
:102D8000AA318A318A318931893189318931893150
:102D900089318931CA49EA49EA49EA49CA49CA49ED
:102DA000CA49CA49CA49CA49CA49CA49EA49CA496B
:102DB000CA49CA49CA49CA49EA59C861AB82F3D467
:102DC00091D46FD40EC48CABAA8A096AA851684109
:102DD00069318A31A9318931482949298929EB3951
:102DE0000D422D424E426E426F424E424E424F4283
:102DF0006F426F429042B04AB14AB14AB14AB142C1
:102E00009042703A90426F422E3ACC31AB39CB416E
:102E1000CA49CA49CB41AA41AA39AA39CA39CB41C0
:102E2000CB410C4A0C522D522D524E5A6E5A6E5AAC
:102E30008F5A4E52CB41CA41CA41AA41A939CA410F
:102E4000CA41CA41CA41AA41AA39AB39AA39AA39E9
:102E5000CA39CA39AA39AA39AA39AA39AA39AA391A
:102E6000AA39AA39AA39AA39AA39AA39AA39AA394A
:102E7000AA39AA39AA31AA318A318A318A318A31EA
:102E80008A318931893189316931693189318931B1
:102E900069316931EA51EA51EA51EA51EA51EA49A4
:102EA000EA49EA49EA49EA49EA49EA49EA49EA498A
:102EB000EA49EA49CA49CA51E959C8612D9B34E532
:102EC000D1DCB1DC0EC48CABAA8A296AC951A941F4
:102ED00089398A316829482948296829AA31EB416A
:102EE0002C4A2D4A8E52AF52AF526F4A6F4A6F4AE8
:102EF0008F4A8F4A9042B04AB14AD14AB14AD14A28
:102F0000D14AB142B142B0426F3A0D32AB31AB3926
:102F1000AB41CB41EB41CB41AA39CA39CA39CB3994
:102F2000CB41EC492D520C52EC492D5A6E5A6E5A37
:102F30006E5A4E52CB41CA41CA41A939A939CA4138
:102F4000CA41AA41CA39AA39AA39AA39AA39AA3919
:102F5000AA39AA39AA39AA39AA39AA39AA39AA3959
:102F60008A398A39AA39AA39AA39AA39AA39AA3989
:102F7000AA39AA398A398A318931893189318A3124
:102F800089318931893189316931693169316931F1
:102F900069316931EA51EA51EA49EA49EA49EA49BB
:102FA000EA49EA49CA49CA49CA49CA49CA49CA4949
:102FB000C949C949CA49C949C959C761CFAB54E5CB
:102FC000B1DCB0DC0EC48DABAA8A096AC951A94133
:102FD000693969316831683148316831A9390B4A3A
:102FE0006D528E5AF062EF62AF5A8E526E4A8F4A1D
:102FF0008F4A904A9042904AB04AB14AB14AD14A67
:10300000D14AD14AD14AD0428F422E3AEC31AB312B
:10301000CB39CC41CB41AA41AA39CB39CB41EB4189
:10302000EC410C4A0C4AEC49EC492D5A6E5A4E5A66
:103030006E5A4E5ACB41CA41AA41AA39A939A93977
:10304000C939AA39AA39AA39AA39AA39AA39AA3949
:10305000A939A939AA39AA39AA39AA39AA39AA395A
:1030600089398939AA39AA39AA39AA39AA39AA398A
:10307000AA39AA398A398A31893189318931893124
:1030800089318931893189316931693169316931F0
:1030900069316831CA49CA49CA49CA49C949C9498D
:1030A000C949C949C949C949C949C949A949A949D0
:1030B000A949A949C949A949E959086A51BC33E54F
:1030C00090D46FD42EC4ADB3CB8A296AC959884134
:1030D0004839483168314731473188390A4AAD6249
:1030E0000F73507B707B106BAE5A6E526E4A6F4AF4
:1030F0008F4AB04A904A904A904A904A904A904AE1
:10310000B14AB14AD14AD14AB0426F422D3AEC3964
:10311000CC39CC39CB41AA41AA39CB39EB39EB4177
:10312000EC410C4A0C4A0C4A0C526E5A6E5A4D5ADB
:103130008E5A6E5ACB41CA41AA39AA39C939C939FE
:10314000AA39AA39AA39AA39AA39AA39AA39AA3967
:10315000A939A93989398939AA39AA39AA39AA399B
:10316000AA398939AA39AA39AA39AA39AA39AA3968
:10317000A939A9398931893189318931893189312F
:103180008931893189316931693168316931693110
:1031900068316831C949C949C949C949A949A949D1
:1031A000A949C949A949A949A949A949A949A9496F
:1031B000A949A949C949A849C8594972B2CC12DDDF
:1031C00090D46FD42FCCEEB32C936A72095AA949CC
:1031D00068396839473127294731EA49ED6A9083D0
:1031E000F18BF28B91833073AE626E526E526E4AE7
:1031F0006F4A904A8F4A904A904A904A704A904A41
:10320000904AB04AB042B0428F426F424E3AED39D6
:10321000AC318B31CB41CA39CA39CB39CB39CB39F7
:10322000EB41EC410C4A0C4A0C524E5A6E5A4D5A24
:103230006E5A4D5AEB41CA39AA39AA39C939A93946
:10324000A939AA39AA39AA39AA39AA39AA39AA3967
:10325000A939A939893189398939A939A939A939C6
:10326000A939A9398939A939A939A939A939893196
:103270008931893189398931893189318931893176
:103280008931693169316931683168316831683152
:1032900068316831A949A949A949A949A949A94950
:1032A000A949A949A949A949A949A949A949A9498E
:1032B000A949C949A949A849C8594972D2CCF2DCDF
:1032C000B0DC90D4CDBBADB32C936A7AE959884178
:1032D00047394831473147318841AC62D18B73A4BB
:1032E00053A41294918B2F73AE628E5A6E524E4A33
:1032F0006E4A8F4A8F4A8F4A905290529052905203
:10330000B052B04AB042B042AF42B0428F422E42B9
:10331000CD398B31AA39AA39AA39AA39AA39CB3978
:10332000EB410C4A2C4AEC49EC492D524E5A4E5A6C
:103330006E5A0C52EB41CA39AA39AA39C939A9398E
:10334000A939AA39AA39AA39AA39AA39AA39AA3966
:10335000A939A93989398939A939A939A939A9399D
:103360008939893989398939A93989318931893145
:1033700089318931893189316931693169316931FD
:103380006931693169316831683168316831683172
:1033900068316831E849C849C849A949A949A949D2
:1033A000AA49A941A941A949A949A949A949AA499B
:1033B000AB49AB49AB498A49AA596B8272CCD1DC83
:1033C0008FDC6ED4ACB34B9BAA7A0962C9518739A2
:1033D000663165312629E528E851CE93B1BCB1BCF0
:1033E00071B410A4B0932F7BCF628F5A6F526E4A84
:1033F0008F4A8F52904A904A904AB04AB04AB04A97
:10340000D14AD14AB14AB14AB24AB14A90426F4216
:103410002D3AAB296A31AB39AB39AB39AB39AB3962
:10342000AB39CB41CB41EB490C4A0C522C5A4D6283
:103430002C620C5AC941473169398B416B398A4139
:10344000AA41A839C841A8396831AA396A398A39E4
:10345000AA3989398939893989398939893989393B
:10346000893989398931893189318931893189317C
:1034700089318931893189316931693189316931DC
:1034800069316931693169294829682968296829B8
:1034900068296829C949C949C949CA49CA49CA499B
:1034A000CA49AA49EA49C949A949A949A949AA4908
:1034B0008A498A41AA49A949C9598B82D3D4F2E4DD
:1034C000AFDC6ED40DBC4C9B6A72C9518841473148
:1034D00006290521062905296A6271ACF2C4D2C405
:1034E00071B410A4D093307BCF6AAF5A6F526E4A3A
:1034F0008F4A8F52904A904A904AB04AD152D15244
:10350000F2521253F252F252F252D252B14A904A4D
:103510002E3AAB2949296931AA39CB39CA39CA3976
:10352000CB41CA41AA41CB49EB490B522C5A4C5AC8
:103530002C5AEB518739E6280729293109314939B5
:10354000683968398739A8398939AA398A398A396D
:1035500089398939A939A939A939A939A939A9399B
:10356000A939A9398931893189318931893189313B
:1035700088318831893189316931693169316931FD
:103580006931693169316831683168296829682988
:1035900068296829CA49CA41CA41CA41CB49CB49AD
:1035A000CA41CA41A941A941C941C949C949C949F1
:1035B000C949CA49C949C951E9616A7A91CCB0D4AB
:1035C0008FD44ECC8CABAB82C95949414939483173
:1035D0000729E620C5200529CC7234C533CD13CD8B
:1035E000B2C472B4D0935083EF6AAF5A6F526E4A2E
:1035F0008F4A8F52B052B04AB04AD052D152F15293
:10360000F2521253135BF352F352F252D152B04AB8
:103610004E42CC31272107212729682948298931A1
:10362000CA39CA39AA41EA410B4A2B524C5A4C5A60
:103630004C5A0B52A8412731283129310831283101
:10364000273126296731883989398939AA41893949
:10365000A9398839A939A939A939A93989398939BB
:10366000893989398931893189318931893188317B
:103670006831683188316831683168316831683162
:10368000483148316831483168314829482948294A
:1036900048296729EA49CA49AA41AB41AB41AA4135
:1036A000AA41AA41A941C941E949E949E949C849A9
:1036B000A849C949C849C851E861497A91CCF2DCA6
:1036C000D0D44FC4CA8A096A684949414A394A393B
:1036D00029310829C520E5280C7375CD54D553D55B
:1036E000F2C4B2BCD09B5083EF6AAF5A6E4A4E4AC6
:1036F0006F528F52B052B052B052D052D052D152BB
:10370000D152D152F252F252F252D252D152B04A66
:103710006E42EC31682907212729682928292829A0
:10372000693149318A39AA39CB41CB41CB49CB499F
:10373000CA49AA416839E72808292931293149317C
:10374000283127314731273108292831AA418939C1
:10375000A83987398939893989398939883988393E
:1037600088398831683168318831883188318831C9
:103770006831683168316831483148314831483101
:10378000483148314831483148314729472947298C
:10379000472947290B52EB49AA49AA418A418A4144
:1037A0008941A9490A520952295A4A5A6A624A6207
:1037B000295AE959E851C851C859087230BCD1D4C6
:1037C00070C48DA3AA820A628A518B418C416B39E5
:1037D0004A3109290529E5300C7B75CD53CD53D5E8
:1037E000D2C471B4F09B7083EF6A8E5A4E524E4A27
:1037F0006F528F52B052B052B052B052B052D052FB
:10380000B152B14AD252D252D252D252D152B04A0D
:103810006F42ED39683107214829CB39CB39AB39B3
:10382000AB398B31CC41CC41AC41AB398B398B3985
:103830006A394A312831E828E8280929293129310B
:10384000082928292829082909296A39AB4148313A
:103850006739873968316831683168316831683172
:1038600068316831483168316831683168316831B0
:1038700068316831473147312731272927292729DE
:1038800027292729272927292629262926292629BC
:10389000262926292B5AEA51C9498949894968416B
:1038A0008949A949E9512A626B6A8B728B728B72C2
:1038B0006A6A2A6A0A5A0A62096A09722D9BAEABC1
:1038C000AEAB2C93CC822B62CB51CC49AC418B3923
:1038D0008A314931063105314D8395D573D573DD74
:1038E000F1C470B4109C9083EF6A8F5A6E526F527D
:1038F0008F528F52904AB052B052B052D052D152E1
:10390000D152D252F252D252F252F252D152B0525B
:103910008F4A2E3A6929E7182821CC390E420E42E7
:103920002F4A2F4A304A2F4A0F4AEF41EE41EE41CB
:10393000EE41CD41CD41AC418C396B398C398C395C
:103940008B39AC39CD41CD410F526F5A0D4A4831B8
:103950004739663968316831683148314831483112
:103960004831483147314731473147314731473195
:10397000473147312629262906290629E628E6283F
:10398000E628E628E628062906290629E520052155
:10399000052106214A62085AC85187496749674983
:1039A0008849A851C9592A626A6A6B728B7A8B7AE4
:1039B0002A72E9690B620B624C72AC820D936EA3A2
:1039C000CFABCFA30D834B62EB49ED49CC41CB3953
:1039D000CB39893126314641CF93B5DD94DD73DD96
:1039E00012CD91BC109C8F83EF6AAF5A8F528F52C9
:1039F00090528F529052B052D052D152D152F15A6D
:103A0000F25AF25AF25AF25AF25AF25AF152D15288
:103A10008F4A4E42CB392821E8208B31EE41EE41CE
:103A20000F42304A314A314A314A314A504A504AAB
:103A3000504A50525052304A304A2F4A4F527052D8
:103A40007052915AB25AB362F46AF36AED4949313D
:103A5000683946314731473147314731473147317E
:103A60004731473127312731272927292729272976
:103A700027312731262926290629E628E520E620B0
:103A8000E520E520E628062906290621E520E5208F
:103A9000052105214962E859A751864986496649A9
:103AA0008749A851C859C959E9614A720E8B90A338
:103AB0000E932A7A2C6AEB616D7A509B90A3F1B336
:103AC00010ACF0A38F8B8D6A0C520D4A0C42EB4167
:103AD000EA41A8314639A74930A4D5DDB4DD53DD2C
:103AE000F1CCB1BCF09B6F83EF6AAF5A8F528F520B
:103AF000B0528F52B052B052D152D052D15AF15A24
:103B0000F15AF15AF25AF25A125B125BD15AD1525F
:103B10008F4A4E42CA392821E8188B312E422F4A4B
:103B20000F42714A314A314A514A714A714A714AC7
:103B3000704A714A5252525272525152915291529B
:103B40007252B35AF462D562D462925A4B31083140
:103B500068392631473147314731473127312629E6
:103B60002629262926292629062906292629263115
:103B7000273147314731262926290629E620E62024
:103B8000C620C62006292729272906210621062125
:103B900006212621C751A7518651864966414641D3
:103BA00066498749A8518751885988598C7AD5CC5C
:103BB000F2B30E938E72AE7AEF8A309390A3F1AB8C
:103BC00011AC11A4D1932F7B8E5A2D4A0C42EA419D
:103BD000C939A73166418649D2BCD5E593DD52D5B6
:103BE00012CDB1BCF09B4F7BCE62AF5AAF5A8F5211
:103BF0008F526F52B052D152D15AD15AF15AF15A12
:103C0000F15AD15AD25AF25AF25AF25AF15AD152C0
:103C10008F4A6E420A3A6829E7188A312D426F4A64
:103C20009052915291529252B2529252915291525A
:103C3000B152915293527352724A714A914A924AC6
:103C4000B352D45AD45AF5625673715A0A2969315B
:103C500047312631473127314731473147314731E5
:103C6000273126312629062906290629062906296B
:103C7000263147316731673167314729272927299D
:103C80002729272947296829682968294729472991
:103C900047214721A8498749674167414639463945
:103CA000674167416741884988516749E961F1ABDC
:103CB000D4C490A3508BEF82CE822F93D1AB72BC31
:103CC000B3C4B3BC119C4F7B8E624E522D4A0B4243
:103CD000E941A8398649C65113C515E6B4E552DD58
:103CE00012CD91BC109C6F7BEF6ACF5AAF5A8F52A6
:103CF0008F528F526F4A8F4AB052B052D05AF15AF7
:103D0000F15AF15AD15AF25AF25AF25AF15AF15A78
:103D1000B0528F4A0A3A6829072189312D426E4AEA
:103D20009052B152D25AF25A135B135B135B135B7E
:103D3000135B125BD45AD45AF352F35A1353135BE6
:103D4000145B35635663766B96730F4A29292731C6
:103D50004731263167316731883988398839883960
:103D600067394731263106290629062926292631B1
:103D700047316739A839A839A839A9398831883134
:103D800089318931A931CA39EA39CA31C931C931D0
:103D9000C929C929684147392739273126312631B0
:103DA0002731473147396841684167416749AC7AF3
:103DB00056CDB3BC32A4B09BB09B11B493C435D5DF
:103DC00035D5D3BC319C4F7B8E5A4E522D4A0B4A6F
:103DD000CA41A8396541E65953CDF5E593DD32D5A1
:103DE000F1CC91B4D0932F7BAE628E5A8F528F520A
:103DF0008F528F529052B052D05AD05AF15A115B12
:103E0000115BF15AD15AD15AF25AF15AF15AF15A78
:103E1000B0528F4A0A3A68290721AA312D424E4AE8
:103E2000904A9152D25AF35A1363145B3463346349
:103E30005363335B355B345B345B535B535B545B85
:103E400075637663966BB6739473AB312829262914
:103E5000663166398839A841C941E941C941A8415B
:103E6000883967392631262906290629263147311E
:103E700067398839C939E9410A420A42EA41EA39CF
:103E8000EA39EB390B3A2C424C422C3A2B3A0B32A2
:103E90000B320B3228312731073106290629262912
:103EA0002629272947312631473987416741E8517B
:103EB00092B4B6D5D3B451AC31AC51B492C454DD44
:103EC00074D5B2BC31A44F7B8D5A4D522D4AEB496B
:103ED000CA41A84164498972B4DDD4E573DD32D5A5
:103EE000F2CC92B4D0932F7BCF62AF5AAF528F52A5
:103EF000AF52AF5AB052B052D05AD05AD05AD05A0C
:103F0000D05AB05AD15AD15AF15AF15AF15AD05A1C
:103F1000AF528F4A2B4289312821AB312D424E427C
:103F2000704A9152B252D35AF35AF35A145B145B4B
:103F3000345B145B5563545B535B535B535B535B64
:103F4000545B75637563F6733163482947292631DD
:103F5000663987398839A841E941E949C941A84109
:103F600088396739263126312629262946314731B5
:103F700067318839C939EA412B4A4B4A2B4A0B42EF
:103F80000B420B422C426D426D426D426D3A6D3ACE
:103F90006D3A6D3A473147314731473146316731E4
:103FA0006731673167312631473967398749A64913
:103FB0000C7BF6DD33BD71AC30AC50B4B1C473DDF5
:103FC00094DDF2C430A44F838D624D5A2D520B4ABA
:103FD000EA49E94984498C8B36E6D4E552D512D5B5
:103FE000D1C451ACF193507BCF62AF5A8F528E52F5
:103FF0008E528E528F4AAF52B052AF52AF5AD05AF1
:10400000D05AD05AD15AD15AF15AF15AF15AF05ADB
:10401000B0528F4A2C42AA314929AB312E424F4A25
:104020009052B152B252D35AF35AF45A145B145B01
:10403000355B355B7563545B335B325332533353BB
:10404000545B5563956B167CCF52472946314631F8
:104050002531663988398839A841A841A84188396D
:104060006739673146312629262926292629262916
:10407000473147318831C9390A424B4A4B4A2B42B2
:104080002B422C422C426D428D428E428D428E3A02
:10409000AE3AAE42A749C849E849E849074A084A42
:1040A00008420842E841A841A74146398649C6511D
:1040B000E759F2BCD6D5D2BC70B4B1C433D5B4E59F
:1040C000B4E532CD50AC6E8BAD6A4D5A2C522B52AA
:1040D0000A520952C5516FAC16EED4E552D512CD35
:1040E00091BC10A4908B0F73AE5A8F528F526E4AB0
:1040F0006E4A6D528F52B052D05AD05AD05AF05A9E
:10410000F062F162B05AD15AD15AD15AF15AF05AEA
:10411000CF52AF524D4AAA314929AB310D422E4AF6
:104120007052B152B25AD25AF35AF35A145B345BFA
:10413000355B355B7563545B335B335B3353545B87
:10414000555B7563B56BF57B4D4A67314631663912
:104150000631473947396739673967396739473130
:104160004731473126292629262926292629262985
:104170002629462967318831E9412B4A4B4A4C4A66
:104180004C4A4D424C426D428E428E42AE42AE424D
:10419000CF42CF426862A962C96AC96AE9620A6B02
:1041A000EA62EB62AA626A5A295AA749A751C6591C
:1041B000A6596C9337DE54CDB1BCB1C432D5B4E549
:1041C000B4E573D570B4AF93ED726D624C5A4B5A2F
:1041D0002A52E849A87293D515E6B4E572DD12D5E6
:1041E00070B410A46F83EF6AAF5AAF5AAF528F52B8
:1041F000AE52AE528F52AF52AF52AF52AF52AF5AD1
:10420000D05AD05AB05AB05AD15AD15AF15AF05A5B
:10421000CF52AF526C4ACA394829AA312C422D429A
:104220006E4A8F52B052D15AF25A125B135B335B13
:10423000345B345B5563345B135B335B345B555BDE
:1042400056637663B66B9473CB39673167394739F8
:1042500027392841473147314731473147314731C5
:104260004731463126292629262926294629462945
:104270004629472967318831A939EA414B4A6C4AB6
:104280008D528D4A8E4AAE4AAE4ACF4ACF4AEF4A45
:10429000104BF042E9722A7B6A838B838B7BAB8362
:1042A000AC838C7B4C7B0C738A6A2962E759A659D4
:1042B000C661687275CD75CD34CD13CD74DD15F63C
:1042C000F4ED52D5B1BCEF9B0D7B8D626C626B62DD
:1042D0004A5AE7496B8B36E6D4DD93DD52D5F1CCF3
:1042E0000FACAF9B4F83CF6A8F5AAF528F528E5213
:1042F0008E528E528F52AF52AF52AF528F52AF5238
:10430000CF5AD05AB05AD05AD15AF15AF15AF05A1B
:10431000D052AF52AC520A3A6829C9312C424C4AA9
:104320008E52AF52CF52F05A115B125B325B336345
:104330005363535B355B145B345B545B555B566373
:1043400056637663D773536BAA3147316739273980
:1043500028392841473147314731473147314731C3
:104360004731473126292629262926294629472942
:104370006731673167316731A839C9412B4A6C4AC7
:104380008D52AE528D4A8E4A8E428E42AE42CF42FE
:10439000CF42CF422B836C8BAD8BAD8BCD8BCD8B36
:1043A000ED8BEE8BCD834C73CA6A6962E859C859AC
:1043B000E8610A6AAFABD7ED74D532C5D3DD55F6E7
:1043C00015F653E5B1CC30B40B832C7BEB6A695AFC
:1043D000285AA6492DBCF4EDD4E572D5F1C4B1BC80
:1043E00051A4B08B7083EF6A8E5A8E5A8E5A8E52B9
:1043F000AE528D52AF5AAF5AAF5AAF52AF52CF5A98
:10440000F05AF05AF05AF05AF05AF062F05AF05A54
:10441000D052AF528E52CB396A29AA314D426E4AE0
:104420008F4AB052D152F15AF25A135B335B336365
:10443000546354639563545B546355635563766367
:10444000765B9663D56BCF526731663986414631CC
:1044500068316829482948294829272947294729AF
:104460002729262926292621062126212721272119
:1044700047216829872967296729A831E9390A422C
:104480002B4A2B424C424C424C424C426C424C42D6
:104490004C424C424B838C8BCD93EE930E940E94F6
:1044A0002E940E94EE8B6C7BEA6A8962E859C859A7
:1044B000E9612A72EC9296DDB5DD73CDF4DD75F617
:1044C00056F653DDD1CC71BC71ACEF93CB6A695A0F
:1044D0000752286231D5F4ED73DD32CDF1C4B1B4A9
:1044E00030A48F8BEE728E626E5A8E5A8E5AAE5AEE
:1044F000AE52AE528E52AF52CF5AAF5AAF52AF5A9F
:10450000CF5AD05ACF5AD05AF05AF05AF05AD05AFD
:10451000D05AAF5A8E52EC398A3189292D426E4ACF
:10452000AF52D052F15AF25A135B136333633363C1
:1045300054635463545B335B335B3463556376631A
:104540009663D66BB46B0C3A673166396639673956
:1045500088318931683168314829472946294629F7
:1045600046294629462946294621462166216721B2
:10457000872187298729672967298731A839C93978
:10458000C939C939C931C931C931CA31CA31CA3148
:10459000CA31CA316C8BAD93EE9B2FA44FA46F9C94
:1045A0006F9C4F9C0E8C8D7B0B738962085AE85967
:1045B000E961096A2A7A92C438EED4DD15E696F6E6
:1045C00076FE94E5F2CCF2CC34C5EF938A62495A78
:1045D000C7514D83D4EDD4ED32D532CDD1BC70ACC2
:1045E000EF934E7BCD6A8E628E5AAF5AAF5AAE5A57
:1045F000AE528E528E52AF5ACF5ACF5AAF52AF529E
:10460000CF5AD05ACF5AD05AF05AF05AF05AD05AFC
:10461000D05AD05A8E522C4A8A3148210B3A6D4AD0
:10462000AF52D05AF15AF25A125B136333633363B9
:104630003363336353635363335B3463556375632D
:104640009663F67352636929473166392631883992
:1046500088398939A83988316731662966296629F8
:1046600086298631A631A629A629A629A629C629E2
:10467000C729C729A731A7318731873187316731EA
:104680006731672947294721472147214821482188
:10469000482948298C8BCE932FA470A490AC90A469
:1046A00070A4709C0F94AD832C7BCA6A69622962E6
:1046B000096A096A097A2D9B38EE16E636EEB7FECE
:1046C00056F6D5ED33D595DDD2BC2C83896A486288
:1046D000286292B4D4E593DD32CD12CD90B40F9C14
:1046E000AF8B2E7BEE6AAE628E5A8F5A8F5A8E52E5
:1046F000AE528E528E52AF5AAF5AAF5A8F52AF52FD
:10470000CF5AD05AD05AD05AD05AD05AD05AD05A5A
:10471000D05AAF5A8E526D52AA390821CB394D4A20
:104720008E52D052D15AF15A125B13631363336322
:1047300033635463536374635463346355635563E1
:10474000B56BF573AF52282947316739263188395F
:1047500068396939A739A739863186318531A5315C
:10476000C631E6310632063206322632263227328A
:1047700027324732E839E839C739A73987316731F5
:104780004731472927292721272127212721272981
:1047900047294729AD93EE9B4FA490ACB1ACB1AC87
:1047A00090A470A42F94CE8B8D834C830C7BCB7202
:1047B0006A72096A2A7A6A7AF3C478F677EEB7FEE3
:1047C00056F6F5EDB4E517EE50AC2B83AA722862CD
:1047D0002C8B75D5B4E552D512CDB1BC2FA4CE9398
:1047E0008F8B2F7BCE6A8E5A6E5A8E5A8E528E5275
:1047F000AE528E528E52AE5A8E528E528E52AF5A48
:10480000CF5ACF5AF062D05AD05AD05AF05AF05AF2
:10481000D05AAF5A8E5A8E5AEB412829CB394D4A7D
:104820008E52AF52F15A126333633363336333638F
:104830005463746B3263746B546354635563756370
:10484000B573B47BCB4148314731263127316839C4
:10485000483968398639863186318531A631E63165
:10486000063A263A463A663A863A873A873AA73A65
:10487000A73A873A28420842E839A7398739673189
:1048800047314731472947292729272927294729F8
:1048900048294831CE9B0EA44FAC70B4B1B4B1B42A
:1048A00091AC70A42F9C0E94EF93EF93AE936D8B0D
:1048B000CB7A496A0A7A6A7A6D9B78F698F6B8FEDE
:1048C00097F615EE36EE16EEEEA32B83686A487265
:1048D00070B4B6E573DD12CDD1C470B40FA4AF933C
:1048E0004E83CD6AAD628E5A6E5A8F5A8E52AE5A30
:1048F0008E528E528E5A8E5AAF5AAF5ACF5ACF5AC4
:10490000CF5AAF5AD05ACF5AAF5AD05AF05AF06253
:10491000F05AD05AAE5AAE5A2C4A6931EB414D4A40
:10492000AE52D05A116332633363336333633363FC
:104930005363746B336B956B756B75637563956BB4
:10494000B473106B68316839473126292731273114
:10495000273927394631463166318631A631E63965
:10496000263A463A663AA73AA73AC742C742C842E9
:10497000C842C842494A2842E839A73987398739A5
:1049800067396739673167314731473147314731D7
:1049900068316831EEA30FA42FAC70B491B4B1B4F8
:1049A00090AC70A4509C2F9C2F9C2F9CEF936D8BF0
:1049B000EB7A6A7209726A82AA8254D5D9FED8FE4D
:1049C000B7FE56F697F6D5E5AC9B0A83C97A8C9B61
:1049D00073DDB5E552D5D1C4B1BC4FAC0F9C6E8B25
:1049E000ED726C628D628E5A8E5AAF5A8F5AAE5AE1
:1049F000AF5A8E528E5AAF5AAF5AAF5AAF5AAF5AB9
:104A0000AF5AAF5AAF5AAF5AAF5AD05AD05AF062D3
:104A1000F062F062CF5AAE5A6D52CA39EB412C4A5D
:104A20008E52D05A1163126333633363336333633B
:104A300053635363546B9573756B966B7563947383
:104A400093734C52673987394731262947292731D3
:104A5000063106394639463166318631A631E631AE
:104A6000273A673A873AA73AC842E842E842E94219
:104A7000E942C84269422842E739A739873987396C
:104A800067396739673967314731473147314731CE
:104A900068396839EEA30FAC2FAC50B470B470B461
:104AA00070AC50A450A42F9C0F9CEF93AD8B4C8303
:104AB000EB7A8972E871297AAA82EEA3D9FEF8FE10
:104AC000B7F697F697F6B3DDAB9B098BCCA332D53F
:104AD000F5ED94E573D5F1C4B1BC0FA4CF9B4E8323
:104AE000ED728D626D5A6E5A8E5A8F5A8E52AF5A2F
:104AF000CF5ACF5A8E5AAF5AAF5A8E5A8E528E52C2
:104B0000AF5AAF5AAF5AAF5AD05AD05AD05AD05AD9
:104B1000D062F062CF62AF5A8E52EB41EB410C4251
:104B20008E52D05A116312633363536B746B746B80
:104B300053633363346B556B556396637563B4731A
:104B40007173A94187394631673167294729473150
:104B5000263946414739473967396631A631E73941
:104B6000473A673AA842C842E842E842E942E94A7D
:104B7000E942E9424842283AC739A63186316639C6
:104B800066314631463147312629262927314731BA
:104B900067398839CEA3CEA3EEAB0EAC0FAC0FAC09
:104BA000EEA3EE9BEE9BEE9BAE934C83EB7AAA7248
:104BB000696A696A2972287A8982EA8AB4E55AFFA1
:104BC00097F6B7F6D7FE51CDCCA32DAC31D5D4E5B1
:104BD000D4ED93E532D5D1C450B410A4AF932E7B5D
:104BE000CD6AAE628E628E5A8E5A8F5A8F528E5214
:104BF0008F52AF5AAF5AAF5A8F5A8F5AAF5AAF5AD5
:104C0000AF5AAF5AD05AD05AD05AD062F05AF05A4E
:104C1000F05AF05ACF62CF628E5A2D4A0C4A2D4A72
:104C20006E4AB05A12633263336353633363336340
:104C30003363546B346B556B556355637463B47352
:104C4000CE5AC941A741A739873187318731873982
:104C50008741874988418841A841A739C739E73941
:104C6000473AA842C842E842E942E942E942094BD0
:104C7000E94AC9426942073AC631A631863146310E
:104C800026312631262926290629062906292629FC
:104C9000473167394B9B6C9B6CA38DA3ADA38DA350
:104CA0004C9B4C934C8B2C8B0B83CA7A896A486A39
:104CB000486A696A497A497A697AA9826FBCF9FEB9
:104CC000B7FEB7F6F8FEF3DDF0C431D5D3E5F4ED69
:104CD000D4ED72DD12CD90BC2FAC10A4AF932E7B1F
:104CE000EE6AAE62AE62AF5AAF5AAF5AAF5A8F5247
:104CF0008F52AF5AAF5AAF5AAF5AAF5AD05AD05A52
:104D0000D05AD05AD05AD05AD05AF05AF05AF162EA
:104D1000F162F05AF0621063D0628E526E526E529F
:104D2000AF52F15A126333633363546B33633363AB
:104D30005363746B766B55637563B66B946BD37BFF
:104D40002B4A094AC841C741C839E839C839C83966
:104D5000C741E749E949E849E849E741E739273ADE
:104D60006742A842C84AE84A094BE94A094B094B3D
:104D7000E94AA8426942073AA73186316631462995
:104D8000252926292629262906290629062906292C
:104D900027292731A98ACA920A932B9B2C9B0B9314
:104DA000CA8AA982897A89728972696A28622862A4
:104DB000496A8A728982898269826882EA8A36EEC1
:104DC00018FFB7F6F7FE96F6F4E514EE35F614EE96
:104DD000D4ED92DDF1CC90BC30AC10A4D0934F83D5
:104DE000EF72CE628E5A8E5A8E5AAF5A8F5A8F52A7
:104DF0008F5AAF5AAF52AF52AF5AD05AD05AAF5A59
:104E0000AF5AAF52D05AD05AF05AF05AF15AF15A1A
:104E1000F15AF15AD062F162D062AF5A8F528F527A
:104E20008F52D15A12633363546B546B546B546B6F
:104E3000746B746B966B3563966BB573D57BEF6251
:104E40000A4A2A52084A294A294A2942294208423A
:104E5000284A285229522952284A284A274247429A
:104E6000874AA74AC84AE84AE84AE84AE94AE94A72
:104E7000C84A8842283AE731A73166316631262987
:104E8000262926312629272926292729272927299E
:104E900007290729688A888AA992CA92CA9AAA9277
:104EA0008982487A2872286A286A286A0762076213
:104EB000496ACA7AAA82AA8A89828982487AF1C40E
:104EC00019FFD7F6F7FED7FE76F655F615F6F4ED90
:104ED000D4E593DD12CDB1C450ACF0A3D093708370
:104EE0000F73CE62AE62AF5AAF5AAF5AAF5A8F5AF3
:104EF000AF5AB05AAF52AF5AD05AD05AD05AD05AED
:104F0000D05AB05AD05AD05AF15AF15AF15AF15AED
:104F1000F15AF15AF16212631163F15AD05AD05A20
:104F2000D05AF15A3363546B546B546B5463546BC3
:104F3000746B746B966B756B9573B57B72730B4A60
:104F40002B522A524A524A526A526A4A494A494A9A
:104F5000484A4852495249524852484A474A674A81
:104F6000874AA74AA74AC74AC74AC84AC84AC84A36
:104F7000A84A6742083AC73186316631463147311F
:104F8000473147314731473148316831683148311D
:104F900048292729A992A992C99ACA9ACA9ACA9A4B
:104FA0008A926982497A2872286A086AE761E75911
:104FB00008626972AA82AA82AA8AAA8A68826C9BFB
:104FC000B8FEF8FEF8FEF8FE97FE56FE35F615EE32
:104FD000F4E5B3DD32D5F1C450B4F0A3D09B908B8F
:104FE000307BCF6AAF62AF5A8E5A8F528F526E5259
:104FF0006F526F528F528F52B052B052D052D05A1D
:10500000D05AD15AD052D15AF15AF15AF15A125BB0
:105010001263326312631263126312631263125BD0
:10502000126333635463546B546B546B546B546B03
:10503000746B746B966BD67B9473B47B4D52CA4978
:105040002A524A526B524A524A526A526A52495240
:10505000294A294A284A4852485268526852875277
:105060008752874A874A874A874A874A884A884AAE
:1050700067424742E831A731873167316731673985
:1050800068396839683968398939893189318931AC
:10509000693168310AA30AA30AA32BAB2CAB0CAB72
:1050A0000BA3EB9AAA8A8A824972286AE761C759D8
:1050B000C7590862897A89828A8AAA8AAA8AA982B1
:1050C000F6E519FFD8F6F8FE97FE97FE76FE56F63F
:1050D00035EED4DD53DD12CD91BC10A4F19BB1931C
:1050E0005183106BAF628E5A8E528E528F526F5216
:1050F0006F526F52B052B052B052B052B052D05202
:10510000D052D152D15AF15AF15AF15AF15AF25AB7
:10511000125B125BF25A125BF25A125B1263326339
:1051200033635463546B54635463546B546B5463D0
:10513000546B746BB66BD573D483EF6AA941E9499C
:10514000E9510A524B522A522A5229522952294ACB
:10515000294A0942084A284A484A685288528852CD
:10516000875287526752674A464A47424742274218
:105170000742E739C839A839A839883988396839E0
:105180006839683969398939893989398939893971
:10519000AA39AA396CB36CB36CB36CB36DBB6DB385
:1051A0006DB34DAB0C9BEB92AA824972086AC76142
:1051B000A759A659286A487A69826A8AAA8A89827E
:1051C000B1BCF9FEB8F6D8FE97FE77FE77FE77FE03
:1051D00056EEF5DD73DD33D5D2C451AC12A4F29B8B
:1051E000928B3173CF62AF5A8E5AAF5AAF5AAF5AC1
:1051F000B05AB05AD052D052D052D052D152D152CD
:10520000D152D152F15AF15A125BF15AF25AF15A73
:10521000F25AF25A135B13631363136333633363FA
:105220003363546B546B346334635563556B54630D
:10523000546B956BD673B473D3830B52A949C85181
:10524000E949E949EA49E949C949C849E849E84118
:10525000C841E839E841E8410842484A6952885A59
:10526000885288524752274A0642E741E741E739C8
:10527000E739C739C839C839A941A941A941894184
:105280004839483969396939693969316931AA391F
:10529000CB410B428CB38CB36CB36DBB8DBB8EBB5F
:1052A0006DB34DAB4DA30C9BCB8A697A296A08621A
:1052B000C7618659A6590772287A2982498289824C
:1052C000AD9BB8F6F9FEF8FE97FE77FE77FE57F62F
:1052D00056EE15DE73DD53D5D2C452B412A4F39B3F
:1052E000928B3173CF62AF5A6E526E526E526F52C2
:1052F0004F524E4A6F4A6F4A6F4A904A9052B0528C
:10530000B052B052D152D152F15AF25AF25AF25A24
:10531000125B1263135B3363135B135B335B335BAF
:10532000135B33635463145B145B5463556B5463B6
:10533000556B9573D673167C5173EA51E951E9594F
:10534000C951C941A941A941A841A841874187390B
:105350008739A831A739C739E741084A484A68520E
:1053600068526852274A074AC641C639C739C73901
:10537000A739A739A839C941C941C949CA49894189
:105380004839283928394939493149316931AA39E7
:105390000C424D4A6DAB4DA32CA32CA34DAB4DA39A
:1053A0004DA34E9B2D930D8BCC828B7A6A72486AEB
:1053B000076AE661C959A8592962296A696A687247
:1053C000EA8293D5F9FE97FED8FE97FE56F697FE31
:1053D00077F6F5E534E5B3D431BCAFAB6E9B6F9B8C
:1053E0002E8B8C726C626C5AEB49EC410C4A0D4A64
:1053F0002D4AED490E4AEE49CE49EE490E4A0E4A73
:105400002E524E524F524F525052705A925AB262CE
:10541000D362D362145B145B13631363F36212638E
:1054200033635363535B535B545B545B755B7663CD
:10543000976B976BD38B707BCD726B6A496A486AA6
:10544000276AE661A659A65187498741873988317D
:10545000A829C92968398841A841C841E849284A8A
:1054600028522852E749C7498641864186398739FB
:105470008739873988418841A841C841A839A83966
:105480006831483128312931493149316A31CB39C4
:105490000D424D42CC92AB928A8A8A8ACB8ACB8AC1
:1054A000CC8AED8AED82EE82EE82CD7AAB7A6A7298
:1054B000286A0762E959A859E861E761286A486AD9
:1054C00068720EAC19FFB8FED8FE97FE56FE56F66F
:1054D00016F632D592CC71C431BCCFAB4E9B0D8B3E
:1054E000ED828C728C6A6C620B4AEB49AB418A3953
:1054F000AB41AB39EC49CC41AB41CC410D4A0D4AF3
:10550000EC49ED49EC41ED490E4A0F4A0F4A0F4A6A
:105510007152B25AD25A1363336313631363336BFA
:105520003363135B74631353545B9563345B55634C
:10553000B66B766BB28B5083EE7ACC7ACB7AAA7A42
:105540006972286AE861C859A751A849A841A839D1
:10555000A839C8398941A941A841A841C841C741D2
:10556000C741C749A641A641864186418741874137
:105570008739873988418841883988398831883125
:105580006831483148314831493149316A31AB39A4
:10559000EC390C3A2A7A297A0972097229724A720C
:1055A0004A6A6B6ACD720E7B4F834F830E83AC7257
:1055B0006A6A296AE961C859A759A659E761E7618A
:1055C000066AA87A73DDF9FE57FE77FE77FEF5EDE1
:1055D00093E593E5F3CC71BCAEA3AB8AE869A76110
:1055E0008759674988492739C628C620A620A6209A
:1055F000A720661864108518C620E628E620E62055
:10560000272948318A398A398B39CC412E4A4F5261
:105610004F524F524F4A4F4A9052F262346B346BA2
:105620001463135B135B345B556354635463756B92
:1056300095739573508B2F8B0E8B0D8B0D8BEC8A86
:10564000AB7A6A72296A0962C959A851A849A8495E
:10565000C841C841C949C949A841A841A741C74152
:10566000C741A741A649A649A749A749C849C8496A
:10567000C841A84188418839883967316731673125
:105680006831683148314839693969316A31AA313C
:10569000AA39CB39C869E969E86109622962295ADE
:1056A0002A5A4B5AED6A507BB18BB18B4F83ED7AFE
:1056B0006B722A6AE861E861A7598659865986594A
:1056C000C661E6696B9B98FE98FE15F6D4EDF5F57C
:1056D00093E5EDB3AA82E769645944514551044901
:1056E000054926492641063947418949A949EB51CF
:1056F0000B52AA4188390629841863106310841854
:105700008418841844106410A518C618C6200829E7
:10571000AA392C4A6E4A6E4A6F529052915AD35A05
:10572000F462356B15633463145B54639573536B88
:105730005373D583CD8ACD8ACD8AED8AEC8ACC820B
:10574000AC7A8B726B724B6A0A62C959C959C851DB
:10575000E851E851E951E951C849C849C849C8491F
:10576000E749C749A749A749A749C849E849E849B6
:10577000E849C841C941A841883988316731673152
:105780006731683148316839693969398939893906
:10579000A931A931C861E861E86109622A624A5AFF
:1057A0004B5A8C5A0E6B707BD28BB28B5083CD7A56
:1057B0006B6A0A6AE861E861A759865965516551C3
:1057C000A661A6618561D1CCB9FE16F6F5F5F1D4D6
:1057D0002A9B8369845964516451655965514551C7
:1057E0004551665109628B722E832F83CE72EE7201
:1057F0000F7BAE6A8C5A8C5A2B52C9414731C52057
:10580000A4188418C520C41884188310831083102A
:10581000A418E4182829CB394E524F5250527152D5
:10582000B35AF462356B1563356B546B536B7373FA
:10583000727BF06A2A7A4B7A6B7A6B7A4B724B7274
:105840006B6A6C728C728C726C6A2A62E961E861B4
:1058500008620862295A095AE851C849C849E84902
:10586000E851C849C851C849C849C849C849E9495F
:10587000094A094AE949C941C841A839883167310B
:105880006731883168398839894189398939893955
:1058900089398831E869E869E869086249626A62B9
:1058A0008B62CD6A2E736F7B90835083EE7A8C72FD
:1058B0002B6A0A6AE861C861A759A759A75986598E
:1058C000865986590772487A53DD57FEB0CCCDB35E
:1058D000C571C469A4594351234964516459855918
:1058E000697ACFA331B452B493B4D19B2E830F7B8A
:1058F000EF7ACE72AE6AAE628E62AE62AE624C5A21
:10590000A941072963108318A318A318A218A2108D
:10591000A210C218430885102829ED414F52304A81
:10592000314A7252B35AF462346B336B7373727BC5
:10593000AE6ACA49A861C869E969E961C959E95902
:105940002A626C628D6AAD72AD726B6A29622962DD
:10595000286A286A4962295A0852E851E8510852CF
:105960000852E851E851C851C849C849E9490952A3
:1059700009522A52EA49E941C941A94188396731A6
:1059800067316839A839C941C949C949A941A841FC
:1059900088398839287A287A0872286A496A696AAF
:1059A0008A6ACC72CC72CD72CD72AC726B724A6A5A
:1059B000296A296A296A296A0962E861E861E86155
:1059C000C761C761E76908728DA333D5D1CC90C494
:1059D0008469A4694351E561A5596351687A70BC33
:1059E00095DDB6E555D5F4CC93BCD1A34F8B508B48
:1059F0002F830F7BF072F072F072D072CF6ACF6A91
:105A0000AF6AAE62EA494731A4188210A218C218E0
:105A1000C2188110E520841064100829AB39EE41CA
:105A20000F42514A51527152915A126B727B4D5A28
:105A30006841CA518759A759C859C859A851C84976
:105A40000A524B5A8C62AD6AAC6A6B622962496237
:105A5000696A496A69624962295A085A0852295A88
:105A600009520952E951C951C849C849C949E949C6
:105A7000E949E949A941A841A839A83988396739CC
:105A800067398839A941EA492A522A520A52E94912
:105A9000C949A849688A6882487A487A497249722D
:105AA000496A8A726A6A4A724A6A296A096A296A6A
:105AB000497249726A6A6A728A722A6A4A6A4A6AC8
:105AC0000962296A296A8A7A697A2C9370BC4C9B8C
:105AD00085616461C5616359C5616B9B94DD57FE47
